:020000040800F2
:1000000050050020D1000008B1200008FF1C0008A6
:1000100000000000000000000000000000000000E0
:10002000000000000000000000000000B5200008F3
:100030000000000000000000B3200008B720000806
:10004000E3000008E3000008E3000008E300000804
:10005000E3000008E3000008E3000008E3000008F4
:10006000E3000008E3000008E3000008E3000008E4
:10007000E3000008E3000008E3000008E3000008D4
:10008000E30000083D21000800000000E300000834
:10009000E3000008E3000008E3000008E3000008B4
:1000A000E3000008E3000008E3000008E3000008A4
:1000B000D125000800000000E30000080348854641
:1000C00000F0F2F900480047C5280008500500205C
:1000D0000448804704480047FEE7FEE7FEE7FEE7E6
:1000E000FEE7FEE739210008BD00000830B50B46E9
:1000F000014600202022012409E00D46D5409D4202
:1001000005D31D469540491B254695404019154687
:10011000521E002DF1DC30BD70B5002425460028AC
:1001200001DA01244042002901DA01254942FFF7A2
:10013000DDFFAC4200D04042002C00D0494270BDEF
:10014000F0B51FB40646002082B005464024019158
:1001500000901BE0019922460F46304600F083F8DC
:10016000049A059B801A994110D3104619462246DD
:1001700000F049F9361A8F410197224601200021EB
:10018000009F00F040F938184D4100902046641E51
:100190000028DFDC019B00982946324607B0F0BDFD
:1001A000F8B500242546002904DA0E460124002172
:1001B0004042B141002B04DA1E4600235242012581
:1001C000B341FFF7BDFF8C4617461E46AC4203D035
:1001D000002540428D41AC46002C02D000265742FB
:1001E0009E4161463A46334601B0F0BDF0B51FB4BA
:1001F00086B000200090019002900698069980B287
:1002000004900798090C020400141143079000277A
:10021000089D099806913E463C4603900398A9B272
:100220000204000C039004982D0C15434843002150
:10023000224600F0E8F8C719714110340E46402CF0
:10024000ECDB3846029A00F0DEF8009A019B801839
:100250000090594102980191103002904028CCDB67
:1002600000980BB0F0BD10B5202A04DB0846203AF8
:10027000D040002110BD0B46D340D0402024A21A0C
:1002800091400843194610BDD2B201E00270401CF3
:10029000491EFBD270470022F6E710B513460A4606
:1002A00004461946FFF7F0FF204610BD421C0178B6
:1002B000401C0029FBD1801A7047024670B54A40A5
:1002C000D30FDB0740002DD04A002AD0010E140EB8
:1002D000000212020919400A520A8418E501044674
:1002E0005443000A120A2E045043A4194219200C48
:1002F000C543AA18120C0125AD03521C5219120451
:100300007F39240400D0521C104301D44000491E00
:10031000C2B20C06C0092018401C4008802A02D036
:1003200003E0002070BD40084000002900DA0020F2
:10033000184370BD70B502464A40D50F40004A00D0
:10034000ED0740085208002814D0002A12D0C40D2E
:10035000D30D41020120C0055202490A520AE41A93
:10036000091812187D34914201D3641C00E0490041
:10037000002C01DA002070BD0023914201D3891ABC
:100380000343400849000028F7D100290AD09142D0
:1003900002D10121C90705E0914201D2012101E00A
:1003A0000121C943E005C018401900F03CF870BDB8
:1003B000C217C10F504010B54018CA07962300213C
:1003C00000F039F810BD10B500229623114600F058
:1003D00032F810BDC20F410040020123400ADB0584
:1003E000D207090EC0187F2901DA0020704796292C
:1003F00003DC9623591AC84001E096398840002A48
:10040000F4D04042704710B5202A04DB0146203A60
:100410009140002010BD914020239C1A0346E340E8
:100420001943904010BD002904DA401C490001D155
:1004300040084000704770B40024050C05D110241A
:10044000000402D1002921D01124050E01D100029F
:100450000834050F01D10001241D850F01D1800052
:10046000A41C002801DB4000641C002908D02025C2
:100470002E1B0D46F540A14000D001212943084321
:1004800001061B1B000ADB1D02D5002070BC704753
:10049000DB05181880180029F8DA401C4900F5D14E
:1004A00070BC400840007047064C0125064E05E030
:1004B000E36807CC2B430C3C98471034B442F7D385
:1004C000FFF700FE4C2A00086C2A000810B51D49F1
:1004D000882000F07FF91B4C8A20A11C00F073F9E2
:1004E000211D8C2000F06FF9A11D8E2000F072F903
:1004F00021460831902000F066F921460A31922009
:1005000000F061F921460C31942000F05CF921469D
:100510000E31962000F057F921461031982000F056
:1005200052F9214612319A2000F04DF9214614313A
:100530009C2000F048F9214616319E2000F043F936
:1005400010BD00003401002010B50446F52000F075
:100550000DF9E321014020461C2210400143F52003
:1005600000F0ACF910BD10B5092001222021C00611
:1005700000F0D2FAD02000F0F9F8582802D000F0AC
:10058000B5F910BDB621E02000F098F900F029F986
:10059000C007FBD1FFF79AFFA02000F080F90820E8
:1005A000FFF7D2FF602000F06CF9082000F05AF944
:1005B000F42000F0DBF8032000F046F910BD000045
:1005C000F0B585B000F014F96946F72000F0E8F8BE
:1005D0000098604B0009009001905D485A14006833
:1005E000C117C51851410C46284602462346FFF75D
:1005F000FDFD594B10229A5E06460F46D317FFF7B2
:10060000F5FD0391029054490E20085E2A46C11759
:100610002346FFF7EBFDC20B490443041143029844
:10062000039A181851414C4A0C23D35EDA00001C7F
:100630004A410392484B02900A229A5E304639465C
:10064000D317FFF7D3FD0A06070A0E124249082006
:10065000085E1743C11723462A46FFF7C7FD030D5F
:100660000A0300031A433146381851410122D203CC
:10067000001C5141384A0023D288FFF7B7FD4C10C7
:10068000CD172046284361D0012101980905081A99
:100690004108C3070298039A181A91412F4A002370
:1006A000FFF7A4FD22462B46FFF77AFD05460B46D1
:1006B000294FDE046A0B0C4616203243385E66135F
:1006C000C11733460192FFF791FD3346019AFFF7B8
:1006D0008DFD460ECA0116434A1614200192385E5B
:1006E0002A46C1172346FFF781FD4A03C00C104379
:1006F000C9142346019AAC19534120184B41010AF1
:1007000012201A06385E11431C12C217030F120181
:1007100000010F181A435441F8B2114901F074FF57
:10072000104A0023FFF73CFD05462106380A08431E
:100730007D222112D2000023FFF758FD2818FFF771
:1007400042FE0949FFF7F6FD05B0F0BD0020FBE7CA
:1007500008000020000CFEFF34010020350C0000D2
:10076000E1F50500A08601000000C8421FB5024661
:1007700000206B461873012403A824040123009071
:10078000EC2102940193054800F076FA002801D08C
:1007900000F0ACF86846007B04B010BD1C000020DF
:1007A00010B50C460A460146EC2001F0F1FB20682A
:1007B000FF22010212020240090E00061143000A44
:1007C0000143216010BD0A4610B50146EC2001F03E
:1007D000CBFB10BD0A4610B50146EC2001F0C4FB6E
:1007E00010BD10B5F320FFF7C1FF0921084010BD6F
:1007F00038B56946FA20FFF7D3FF009801090F4882
:1008000000910288CB0854000909891A1B1B022495
:100810000422045F4943825E090B51436343880B02
:10082000DB0A074918180860810040188030001260
:10083000FFF7BEFD0349FFF77DFD38BD3401002001
:10084000080000200000C84210B50446F420FFF75D
:100850008DFF8008A1078000890F0143F42000F07C
:100860002DF810BD10B50446F420FFF77FFFE321FB
:10087000014020461C2210400143F42000F01EF8E5
:1008800010BD10B50446F420FFF770FFC0066109E3
:10089000C00E49010143F42000F010F810BD10B55E
:1008A0000446F520FFF762FFC0066109C00E49014A
:1008B0000143F52000F002F810BD00001FB50B4603
:1008C000024668460373012403A824040123009010
:1008D000EC2102940193044800F078FA002801D03A
:1008E00000F004F81FBD00001C00002010B5092016
:1008F00000222021C00600F00FF910BD30B50146DE
:1009000020314B780022022B04D0042383630A7029
:10091000012030BD03681C680E25AC431C600368D1
:100920001C68640864001C600123056C1C46C06BD5
:10093000AC4044604B700A70002030BD70B500249C
:10094000014620314A78022A03D004218163012420
:1009500016E0026813680E25AB4313600268136843
:100960005B085B0013600122056C1346AB40C56B4E
:100970006B604A7000220A70416B002900D08847E2
:10098000204670BD70B5044600F0CCF80546601CEA
:1009900002D004480078241800F0C4F8401BA0429C
:1009A000FAD370BD0C000020FCB500230124A1E0A7
:1009B00027462A469F403A4073D04D68012D05D006
:1009C000022D03D0112D01D0122D16D185680326DA
:1009D000AC465D00AE46AE406546B543AC46CE681B
:1009E0007546AE4065462E43866046680D79BE4327
:1009F000ED06ED0F9D4035434560C6685F00032559
:100A0000BD40AE46AE4335468E68BE402E43C660FE
:100A10004E68022E01D0122E14D1DE08B600361810
:100A20000196366A5D07B446EE0E0F25B540009676
:100A30006646AE43B4460D69009EB54066462E43F9
:100A4000019D2E6206687546AE430D79AD07AD0F68
:100A5000BD40354305604D68ED004AD5284DAE696F
:100A60002643AE61AD699E08ED07ED0F0095254D5B
:100A7000B6007519AC46AD689E07360F0F27B74014
:100A8000BD430927FF06B84201D1002710E01E4FE1
:100A9000B84201D101270BE01C4FB84202D1022716
:100AA00006E026E01A4FB84201D1032700E00527EF
:100AB000B7402F436546AF60164E35684F68954383
:100AC000FF0300D51543356075684F689543BF0334
:100AD00000D515437560B5684F689543FF0200D592
:100AE0001543B560F5684F689543BF0200D51543BF
:100AF000F5605B1C0A681546DA4000D058E7FCBD7B
:100B000000100240000001400004004800080048B6
:100B1000000C004800040140002A01D081617047A8
:100B20008162704701488068704700000C00002017
:100B300070B5024640325378202B1CD11378012B1C
:100B400019D00123137024245470046825689D4330
:100B50002560046825681E03B54325600468256880
:100B60000D43256000680168194301602020507022
:100B70000020107070BD022070BD70B5024640327A
:100B80005378202B1BD11378012B18D0012414701B
:100B90002423537003681D68A5431D6005682B68F6
:100BA0000F263602B3430902194329600068016821
:100BB00021430160202050700020107070BD022081
:100BC00070BD000070B5040006D025464035687839
:100BD0000026002802D005E0012070BD2E702046BE
:100BE00000F09AF9242068702068016849084900DB
:100BF00001600F2160680906884321680861216847
:100C00008A680120C00382438A60E1680129A168E3
:100C100008D021229202114322689160E1680229E2
:100C200002D005E00143F7E701212268C9025160C3
:100C300021684A680F4B1A434A602168CA68824398
:100C4000CA60616920690843A169090208432168F3
:100C5000C860216AE069084321680860206801686B
:100C60000122114301606664202068702663AE7023
:100C7000002070BD00800002FFB5054604464035E7
:100C8000687883B0202875D10C98002814D00D986E
:100C9000002811D0287801286CD001202870FFF797
:100CA00041FF0746012200901923D103204601F09D
:100CB000E5F8002874D103E00120400260646FE091
:100CC000222068704020A870002666640C9860623C
:100CD0000D98608566630E980090019704A90EC96F
:100CE000204601F057F8002801D02E7058E0618DA1
:100CF0003448FF2905D9FF22228501231B060090D5
:100D000006E0618D21850090208D0123C2B25B0633
:100D10002046049901F09EF8009700220421204605
:100D20000E9B01F0ABF800283AD12068406A616A56
:100D30000870606A401C6062208D401E81B221856F
:100D4000608D401E6085608D00281FD000291DD158
:100D500000970022802120460E9B01F08FF800288A
:100D60001ED1608DFF2806D9FF22228501231B0694
:100D7000009607E024E0608D20850096208D0123F9
:100D8000C2B25B062046049901F064F8608D002829
:100D9000C2D13A4620460E9901F097F8002802D0B9
:100DA000012007B0F0BD20682021C16120684268A1
:100DB000054B1A4042606970AE702E700020F0E75B
:100DC0000220EEE70024008000E800FEFFB50546A3
:100DD00004464035687883B0202872D10C980028EA
:100DE00014D00D98002811D02878012869D001204E
:100DF0002870FFF797FE0746012200901923D103C0
:100E0000204601F03BF8002871D103E001204002A8
:100E100060646CE0212068704020A8700026666441
:100E20000C9860620D98608566630E98009001973B
:100E300004A90EC9204600F0DDFF002801D02E7065
:100E400055E0608DFF2805D9FF22228501231B066E
:100E5000009606E0608D20850096208D0123C2B2A9
:100E60005B062046049900F0F5FF3A4620460E99AD
:100E700001F051F800283AD1606A21680078886250
:100E8000606A401C6062608D401E6085208D401E3F
:100E900080B22085618D00291FD000281DD10097C8
:100EA0000022802120460E9B00F0E8FF00281ED182
:100EB000608DFF2806D9FF22228501231B0600969C
:100EC00007E024E0608D20850096208D0123C2B2CA
:100ED0005B062046049900F0BDFF608D0028C4D158
:100EE0003A4620460E9900F0F0FF002802D001207B
:100EF00007B0F0BD20682021C16120684268054B21
:100F00001A4042606970AE702E700020F0E7022037
:100F1000EEE7000000E800FE10B586B0044614219C
:100F20006846FFF7B8F91249206888421ED1114C73
:100F3000616901208004014361616169014005919B
:100F40000320000200901220012101900320029151
:100F50000491039069460848FFF726FDE1690120E6
:100F600040050143E161E1690140059106B010BD12
:100F7000005400400010024000040048024881680C
:100F800002788918816070470C00002010B506486F
:100F90000168102211430160002000F007F800F002
:100FA00027F8002010BD00000020024070B5044664
:100FB0000D4D7D202978C000FFF798F801460B48B9
:100FC0000068FFF793F800F04BFB002809D1042CD0
:100FD00007D200222146401E00F02AF800206C6053
:100FE00070BD012070BD00000C0000201800002022
:100FF00008B5084881690122114381618169114066
:101000000091C26901040A43C261C06908400090AE
:1010100008BD000000100240002805DBC106C90E13
:1010200001208840014908607047000000E100E0AD
:1010300010B501F001FB10BDF8B505460068394C4C
:10104000C00352D5E0690026C00007D4E16920043E
:101050000143E161E16901400126009132480168E4
:10106000C90510D40168821511430160FFF75AFDCC
:10107000074604E0FFF756FDC01B642824D82A4821
:101080000068C005F6D5206A03273F02384020D00B
:101090006968394081421CD0206A226AB843012124
:1010A00009040A432262226A8A4322622062C0073C
:1010B0000FD0FFF737FD009008E0FFF733FD0099F0
:1010C000411A1A48814201D90320F8BD206A8007DD
:1010D000F3D5206A6968B84308432062002E04D023
:1010E000E169012000078143E1612878C00705D04C
:1010F000206BA96880088000084320632878800658
:1011000005D5206B10218843E968084320632888AF
:10111000400505D5206B4021884329690843206399
:101120000020F8BD0010024000700040881300004D
:10113000F8B50F46060059D03A4D2868C007C00FD1
:10114000B84209D22868400840003843286028681F
:10115000C007C00FB84249D13068334C81070CD565
:10116000400704D560680721090208436060606891
:10117000F0218843B168084360603078C00726D00A
:10118000706801280ED0216802280ED08907002936
:101190002CDA61688908890001436160FFF7C2FCAD
:1011A00000900DE021688903F1E78901EFE7FFF77F
:1011B000B9FC0099411A1D48814201D90320F8BDAC
:1011C00060680C210840716889008842EFD1286866
:1011D000C007C00FB8420BD9286840084000384308
:1011E00028602868C007C00FB84201D00120F8BDB0
:1011F0003078400706D56068072109028843F16806
:101200000843606000F028F86168094A0906090F80
:10121000515CC840074908600020FFF7C7FE002066
:10122000F8BD0000002002400010024088130000BA
:10123000332A00081800002004480549006849685E
:10124000044A4905490F515CC84070471800002006
:1012500000100240432A000810B514A30FCB88B039
:101260006C460FC415A30FCB0FC4184A51680C204D
:101270000B4603401648042B16D0082B14D18B02C2
:101280001B0F6C46E45CD26A04AB1207120F9A5C27
:10129000C90305D500231946FEF752FF214601E098
:1012A00020460C4901F0B0F908B010BD0203040556
:1012B000060708090A0B0C0D0E0F1010010203049B
:1012C00005060708090A0B0C0D0E0F10001002404E
:1012D00000127A0000093D00FEB5040070D02078AD
:1012E000DC4DC0074AD068680007800F012807D08E
:1012F00068680007800F022809D16868C00306D516
:10130000286880033AD560680028E7D036E0616835
:10131000012914D001208004002901D0052914D00E
:101320002A68012109048A432A60296881432960C7
:101330006068002816D0FFF7F5FB06460EE0286827
:101340000121090408432860F2E729680143296064
:10135000F5E7FFF7E7FB801B64286ED82868800359
:10136000F7D50BE0FFF7DEFB064604E0FFF7DAFBFC
:10137000801B6428F1D828688003F7D420780126E0
:10138000800700283CDA68680007800F07D068688B
:101390000007800F022809D16868C00306D42868B6
:1013A000800716D5E06801280AD112E0E06800281D
:1013B000286816D030432860FFF7B4FB074605E0E5
:1013C00043E1FFF7AFFBC01B0228C6D8286880079F
:1013D000F7D52868F82188432169C90008432860A7
:1013E0000EE0400840002860FFF79CFB074604E041
:1013F000FFF798FBC01B0228AFD828688007F7D4F6
:101400002078000722D5E0690028686A0ED03043B2
:101410006862FFF787FB074604E0FFF783FBC01B0A
:1014200002289AD8686A8007F7D50FE04008400084
:101430006862FFF777FB074605E09DE0FFF772FB68
:10144000C01B022889D8686A8007F7D4207804274F
:101450004007002860DA00200190E869C00008D445
:10146000E969B8060143E961E96901400120009199
:10147000019079480168C90511D4016882151143AA
:101480000160FFF74FFB009005E0FFF74BFB009971
:10149000401A642870D870480068C005F5D5A06867
:1014A00001280AD0002801D0052810D0286A400859
:1014B00040002862286AB84301E0286A3043286265
:1014C000A068002812D0FFF72DFB00900AE0286AE0
:1014D00038432862F1E7FFF725FB0099411A5F487E
:1014E000814249D8286A8007F5D50DE0FFF71AFB3D
:1014F000009006E0FFF716FB0099411A5748814219
:101500003AD8286A8007F5D40198002804D0E96900
:10151000012000078143E9612078C00635D5606964
:1015200001280CD0401D686B23D038436863686B7A
:10153000400840006863FFF7F5FA064622E0686B52
:1015400038436863686B30436863FFF7EBFA06461D
:1015500004E0FFF7E7FA801B02285BD8686B80077E
:10156000F7D5686BF8218843A169C900084368630F
:101570000BE0B8436863F4E74CE0FFF7D3FA801B55
:10158000022847D8686B8007F7D4206A00285ED00D
:1015900069680907890F022942D001263606022808
:1015A000286805D0B0432860FFF7BCFA044633E052
:1015B000B0432860FFF7B6FA074604E0FFF7B2FA37
:1015C000C01B022826D828688001F7D4E86AE16A9F
:1015D000000900010843E862616AA06A084369687B
:1015E0003D22120491430843686028683043286014
:1015F000FFF798FA044604E0FFF794FA001B02286C
:1016000008D828688001F7D521E0FFF78BFA001B86
:10161000022801D90320FEBD28688001F5D416E018
:101620000128F8D06868E96A01221204636A02405E
:101630009A420AD10907E26A090F914205D10F21A6
:1016400089040840A16A884201D00120FEBD002023
:10165000FEBD000000100240007000408813000032
:10166000094910B5401E884201D9012010BD074C20
:1016700060610321081F00F0DFFF0020A061072048
:101680002061002010BD0000FFFFFF0000E000E02F
:1016900070477047F0B502462032137F012B21D0EE
:1016A000012515770223537706687468B36870279D
:1016B000BC430F682743776000680B4CA04208D0FA
:1016C000AC07A04205D0094CA04202D0084CA04271
:1016D00004D180244968A3431943816055770020D1
:1016E0001077F0BD0220F0BD002C01400004004046
:1016F0000040014070B5040005D025462035687FC4
:10170000002802D006E0012070BD00202877204686
:1017100000F014F802206877211D206800F02AFDEF
:1017200001204034A071A877E87720706070A07025
:10173000E070207160716877002070BD08B50068A6
:10174000094988420FD10948C26910210A43C26180
:10175000C06900220840009011461120FFF768FC84
:101760001120FFF759FC08BD001000400010024096
:10177000014620314A7F012A01D001207047022210
:101780004A7700680B4A0121904208D08A079042AC
:1017900005D0094A904202D0084A904204D182689A
:1017A0005207520F062A02D002680A430260002044
:1017B00070470000002C0140000400400040014040
:1017C000014620314A7F012A01D0012070470222C0
:1017D0004A770268D36801210B43D36000680B4A43
:1017E000904208D08A07904205D0094A904202D020
:1017F000084A904204D182685207520F062A02D04A
:1018000002680A430260002070470000002C01407B
:101810000004004000400140704770B50446006875
:1018200001690025C9438907002915DBC168C9433F
:10183000890711D4E91E01610120207720688069A1
:101840008007204602D0FFF7E7FF04E000F096F89B
:10185000204600F094F8257720680169C9434907BC
:1018600017D4C168C943490713D40421C94301618E
:1018700002202077206880698005800F204602D0F2
:10188000FFF7CAFF04E000F079F8204600F077F88F
:10189000257720680169C943090716D4C168C9437F
:1018A000090712D40821C943016104202077206868
:1018B000C0698007204602D0FFF7AEFF04E000F0C9
:1018C0005DF8204600F05BF8257720680169C94380
:1018D000C90617D4C168C943C90613D41021C94326
:1018E0000161082020772068C0698005800F2046AC
:1018F00002D0FFF791FF04E000F040F8204600F02E
:101900003EF8257720680169C943C90708D1C16835
:10191000C943C90704D1891E0161204600F030F88F
:1019200020680169C943090609D4C168C943090689
:1019300005D48021C94301612046FFF7A9FE206834
:101940000169C943490609D4C168C943490605D498
:101950004021C9430161204600F013F82068016965
:10196000C943890609D4C168C943890605D4202121
:10197000C94301612046FFF78CFE70BD7047704778
:10198000704770477047704770470000F8B50268AD
:101990000446D06911689668804B05461D40202397
:1019A000002D6CD0F7077E4DFF0FBC460D402F4336
:1019B00079D02546C7078035002F06D0CF0504D53E
:1019C000012717622A683A432A60820708D5F2077E
:1019D00006D0276802223A622A6804273A432A601E
:1019E000420708D5F20706D02668042232622A6828
:1019F000022632432A6002070AD50A461A40664682
:101A0000324305D02668082232622E6816432E60C3
:101A1000020508D54A0106D501222668D2023262A3
:101A20002A681A432A602A68002A30D0800606D520
:101A3000880604D5616E002901D0204688472868B1
:101A400021688968490602D42821084225D0204609
:101A500000F07CFC20688168490619D58268402125
:101A60008A438260206F002812D04E494163206F64
:101A7000FEF764FF00280AD0206F416B06E0850660
:101A800011D58D060FD5616E76E020468847F8BDEA
:101A90002046FFF779FFF8BD05E02046FFF774FF09
:101AA00000202860F7E7256E012D55D1C50653D5D6
:101AB000CD0651D510261662206881682546490654
:101AC0004035002929DA226F116849680904090C98
:101AD000E1D02F8B8F42DED969839169202917D0FD
:101AE000016832019143016020688168490849001A
:101AF000816020688168402291438160E367002013
:101B0000206620680168B1430160206FFEF7F6FE91
:101B1000288B698B401A81B21AE0298B6A8B891A4B
:101B20006A8B89B2002AB6D00029B4D00268FF259A
:101B30002135AA4302602068826852085200826000
:101B4000E36700202066606620680268B243026096
:101B50002046FFF717FF9EE7C50208D5750206D598
:101B60000120000510622046FFF70DFF93E70506F0
:101B700005D50D0603D5A16E002986D18BE7400659
:101B800089D5480687D52046146840218C431460C7
:101B900083670021816600F0B1F87CE70F08000040
:101BA000200100043923000810B5040003D0A06F01
:101BB000002802D007E0012010BD0021742001554B
:101BC000204600F027F82420A06720680168490813
:101BD00049000160204600F0D3FB0128ECD0606A88
:101BE000002802D0204600F00FFB2068416809223F
:101BF000D20291434160206881682A22914381602A
:101C000020680168012211430160204600F062FB58
:101C100010BD000010B586B0044614216846FEF7DA
:101C20003AFB16492068884225D11548C26901212E
:101C300049040A43C261C2690A40059242690A43E3
:101C400042614069084005900C20009002200190FC
:101C5000002002900320039001200490092069468F
:101C6000C006FEF7A1FE002211461C20FFF7E0F996
:101C70001C20FFF7D1F906B010BD00000044004061
:101C80000010024070B5836F202B31D100290AD09B
:101C9000002A08D08568DC01A54206D10369002B23
:101CA00003D1CB0701D0012070BD034660331E7DF8
:101CB000012E1DD001261E75C164014640310A82E5
:101CC0004A82002180228166115021228267A5422A
:101CD00002D10269002A09D0064A82661975006895
:101CE0000168802211430160002070BD024AF4E7C0
:101CF000022070BDF5240008B52400087047FEE7F7
:101D000001688A69D243920701D400228A6200687E
:101D10008169C943C90703D08169012211438161E7
:101D200070470000F7B5044600680E468069C0435E
:101D3000C0062BD420272546403520688069C04343
:101D4000800612D5701CF8D0FEF7ECFE0299401AFE
:101D5000B04201D8002EF0D1606C384360646F70DF
:101D60000020A87028700120FEBD21681020C861E5
:101D70002068C7612046FFF7C3FF20684168044A16
:101D800011404160606C04210843E7E70020FEBD7C
:101D900000E800FEF8B50446164615481D46DAB2BE
:101DA0000090079F0023204600F054F83A46204652
:101DB000069900F0B0F8002818D12846F5B201289D
:101DC00009D02168300A88623A462046069900F018
:101DD000A2F800280AD120688562009700224021DD
:101DE0002046069B00F04AF8002800D00120F8BDEC
:101DF00000200080F8B50446164615481D46DAB2A4
:101E0000C3020090079F204600F024F83A4620467F
:101E1000069900F080F8002818D12846F5B201286C
:101E200009D02168300A88623A462046069900F0B7
:101E300072F800280AD1206885620097002280216C
:101E40002046069B00F01AF8002800D00120F8BDBB
:101E500000200080F0B50668059C7568064F600D8F
:101E6000384385438805800D1104084318432043F7
:101E700005437560F0BD0000FF63FF03F8B51D4624
:101E800017460E46044609E0681C07D0FEF74AFED6
:101E90000699401AA8420BD8002D09D02068816904
:101EA000304688430FD00020B842EDD00020F8BD66
:101EB000616C202001436164403460700020A07098
:101EC00020700120F8BD0120EEE770B516460D46E2
:101ED00004460FE0324629462046FFF723FF00283C
:101EE00001D0012070BDFEF71DFE801BA84208D85E
:101EF000002D06D020688069C0438006EAD4002007
:101F000070BD616C2020014361644034607000202A
:101F1000A0702070E5E770B516460D46044611E046
:101F2000324629462046FFF7FDFE002801D0012059
:101F300070BD681C06D0FEF7F5FD801BA84208D8CE
:101F4000002D06D020688069C0438007E8D40020B7
:101F500070BD616C202001436164403460700020DA
:101F6000A0702070E3E700003EB5012300921B043F
:101F70000A46022402930146019401230348FEF716
:101F80007BFE002801D0FEF7B1FC3EBD1C00002006
:101F90003EB5012300921B040A4603240293014626
:101FA000019401230348FEF767FE002801D0FEF7E5
:101FB0009DFC3EBD1C00002030B587B01421684652
:101FC000FEF769F915484269012189050A43426112
:101FD00042690A400592426949110A4342614269D5
:101FE0000A400592426949000A434261406903245C
:101FF00008400925A402ED06059000222146284646
:10200000FEF78AFD002101200291039101900094C6
:1020100069462846FEF7C8FC07B030BD00100240F4
:1020200010B51348114901601249416000218160D7
:102030000161416181610122C161C2600162FEF7FB
:10204000C1FD002801D072B6FEE700210848FEF766
:102050006FFD002801D072B6FEE700210448FEF7AC
:102060008CFD002801D072B6FEE710BD0054004080
:102070001C0000200E09002010B50C480A49016020
:102080004B214902416000218160C1600161816191
:10209000C1610C22016242614162FFF785FD0028A7
:1020A00001D072B6FEE710BD00440040B000002031
:1020B000FEE77047704710B5FEF760FF10BD30B502
:1020C00095B030216846FEF7E6F800240C940D9494
:1020D0000E94142110A80F94FEF7DDF80320009051
:1020E0000520019001200390102004900003022598
:1020F000099008950A940B946846FFF7EDF80028BC
:1021000001D072B6FEE707200C900E9400210D95C9
:102110000F940CA8FFF70CF8002801D072B6FEE768
:1021200020201090139410A8FEF786FF002801D0FD
:1021300072B6FEE715B030BD7047000010B5094813
:10214000FFF76BFBFEF754FBFEF744F90649086006
:10215000FEF736FA0549FEF7B0F8FEF73BF90449F9
:10216000086010BD6800002000000020CA9F443AAB
:1021700004000020F0B502681D4B0124A4071D4D8A
:10218000984203D0A04201D0A84203D17026B243A6
:102190004E683243184E194F98420DD0A0420BD0D2
:1021A000A84209D0164CA04206D0B04204D0B84292
:1021B00002D0144CA04204D103242402A243CC68D0
:1021C00022438024A2434C69224302608A68C2628F
:1021D0000A688262984206D0B04204D0B84202D067
:1021E000084A904201D10969016301214161F0BDB2
:1021F000002C014000040040004001400044014028
:10220000002000400048014010B5818CC90707D06C
:1022100001684A6801235B049A43836A1A434A604F
:10222000818C890707D501684A6801231B049A43FA
:10223000C36A1A434A60818C490707D501684A6816
:1022400001239B049A43036B1A434A60818C09075C
:1022500007D501684A680123DB039A43436B1A439D
:102260004A60818CC90607D50268916801231B0367
:102270009943836B19439160818C890607D5016866
:102280008A6801235B039A43C36B1A438A60818C7B
:10229000490612D503685A6801210905046C8A436E
:1022A00022435A60026C8A4207D1026851680323B4
:1022B0005B059943436C19435160818C090607D52E
:1022C00001684A680123DB04806C9A4302434A6038
:1022D00010BD0000F8B50446002680300660FEF709
:1022E00021FC054620680068124F000709D501212E
:1022F0002B46002249052046009700F019F90028D6
:102300000DD12068006840070BD501212B46002223
:1023100089052046009700F00BF9002801D0032022
:10232000F8BD2020A067E06726666034267500208F
:10233000F8BD0000FFFFFF0110B5406A0022014612
:1023400040314A834A82FFF71FFB10BD01680A68CB
:10235000FF2321339A430A6001688A6852085200B9
:102360008A60016E012904D101680A6810239A432A
:102370000A602021C16700210166416670470000A4
:1023800070B5044680682169E269084361690025E7
:102390001143226808431168404B19400143116002
:1023A00021684868032212039043E26810434860A2
:1023B000A169206A084321688A680B231B029A439B
:1023C00002438A6036492068884210D13548006B44
:1023D0008007800F0ED0012805D0022805D00328E1
:1023E0000AD1022109E0042107E0082105E02E4975
:1023F000884201D1002100E010210120E369C003DF
:102400002A4A2B4E834223D1002906D0022907D025
:10241000042907D0082937D108E0FEF70DFF03E0B3
:10242000104603E0FEF718FF002831D06168400035
:102430004A088018FDF75AFE80B201461039B142B1
:1024400022D81B49491C01400007400F08431DE0EA
:10245000002906D0022907D0042907D0082913D162
:1024600008E0FEF7E9FE03E0104603E0FEF7F4FEA5
:1024700000280DD061684A081018FDF737FE80B2B9
:1024800001461039B14201D9012501E02168C86037
:1024900000206066A066284670BD0000F369FFFF5B
:1024A00000380140001002400044004000127A0051
:1024B000EFFF0000816F212910D1014640314A8A87
:1024C000002A0CD0C26C03681288D205D20D1A857E
:1024D000C26C921CC264488A401E488270470168E0
:1024E0000A6880239A430A60006801684022114309
:1024F00001607047816F21290ED1014640314A8A1F
:10250000002A0AD0C26C036812781A85C26C521C69
:10251000C264488A401E4882704701680A68802366
:102520009A430A60006801684022114301607047C5
:10253000FFB581B005460F46044660350A9E39E076
:10254000701C37D0FEF7EEFA0499401AB04222D838
:10255000002E20D02068016849072BD5C069C043F0
:10256000000527D401202168C002086220680168A4
:10257000FF22A13291430160206881684908490027
:1025800081602020A067E0678034206000202875EB
:10259000032005B0F0BD20680168FF22A1329143FD
:1025A0000160206881684908490081602020A06797
:1025B000E067EBE72068C1693846884305D0002111
:1025C00003988142BCD00020E3E70121F8E7000036
:1025D00010B50248FFF7DAF910BD0000B000002086
:1025E0000FB410B504A9074B02AA039800F056F8DF
:1025F000044602A9002000F0F9F8204610BC08BCEF
:1026000004B01847ED270008F8B5040C8BB2264635
:1026100082B25E430D0C1046370C584336048019C5
:102620000021794116466E43370C360480197941F2
:1026300026466E438919F8BD8307FF22DB0E9A40B8
:102640008907090E9940002808DB830809489B0088
:102650001B18186890430843186070470007000F64
:102660000838830804489B001B18D8699043084326
:10267000D861704700E400E000ED00E002E008C827
:10268000121F08C1002AFAD170477047002001E0EC
:1026900001C1121F002AFBD170470000FFB58DB0A9
:1026A0000446002506E025280AD0109A0F99904785
:1026B000641C6D1C20780028F5D1284611B0F0BDAF
:1026C00000270121484A009700E00743641C237853
:1026D0000846203B98401042F7D120782E2817D189
:1026E000042007436078641C2A280CD10E98641CCF
:1026F00002C800910E900BE000990A225143303934
:102700004018641C00902078014630390929F3D91B
:1027100020780028D1D0642808D0692806D07528F0
:102720001ED0109A0F9990476D1C5BE00A200E99FD
:10273000019001C90E91002802DA40422D2102E0E9
:10274000390504D52B216A461172012103E0F907EE
:1027500004D02021F7E70BAE0B910DE00021FAE742
:102760000A200E99019001C90E91F7E70199FDF732
:10277000BDFC3031761E31700028F7D103A8801BD4
:1027800020300190780701D5009801E001200090E9
:102790000199884201DD401A00E0002000270090E6
:1027A00006E002A8109AC05D0F9990476D1C7F1C2F
:1027B0000B988742F5DB04E0109A30200F99904780
:1027C0006D1C0099481E00900029F5DC05E030786A
:1027D000109A761C0F9990476D1C0199481E019024
:1027E0000029F4DC641C65E7092801000A68531C11
:1027F0000B601070704710B5012209209102C006CD
:10280000FEF78AF910BD10B50121092000228902C6
:10281000C006FEF781F910BD10B501220920D102D2
:10282000C006FEF779F910BD10B50121092000227C
:10283000C902C006FEF770F910BD10B5FFF7E3FF3F
:102840000520401EFDD1FFF7D6FF0120401EFDD11F
:10285000FFF7D9FF10BD10B5FFF7CDFFFFF7DCFF85
:102860000220401EFDD1FFF7DFFF10BD10B5FFF7BE
:10287000CAFF0220401EFDD1FFF7D6FF0120401EF7
:10288000FDD1FFF7B8FF0120401EFDD1FFF7C4FFC7
:1028900010BD70B505460024FFF7B5FFE80702D06C
:1028A000FFF7BAFF01E0FFF7BFFF0220401EFDD196
:1028B0006D08FFF7A0FF0220401EFDD1641C082C0C
:1028C000EADB70BD9CB0FEF761FBFFF7F8FBFFF79A
:1028D00073FBFFF7A5FB00242648199424491A949A
:1028E0000160FF21E1318460416023498461C1605E
:1028F000FEF700FF002801D072B6FEE7199419A96F
:102900001C481A94FEF7C6FE002801D072B6FEE7F6
:10291000FFF7B2FBFDF727FE1648FEF751FF1548FB
:10292000FEF726FF052000F06FF8144C7D26251FCA
:102930003601236812A168462A68FFF751FE6846EF
:10294000FDF7B4FC82B20B4869464830FFF79AF9AC
:102950000021286800F02AF83046FEF713F800211D
:10296000206800F023F83046FEF70CF8E1E700009D
:102970000010004068000020102700000400002024
:1029800054656D70657261747572653A20256420B6
:102990002A430D0A50726573737572653A20256477
:1029A000206D6D48670D0A0A00000000F3B581B084
:1029B0000024144E80276D460A21FDF7ADFB715CA3
:1029C0002955022C06D10299002903D06A46917834
:1029D00039439170641C042CEEDBFFF73CFFC020F0
:1029E000FFF757FFFFF729FF00240326301B285C61
:1029F000FFF74FFFFFF721FF641C042CF6DBFFF706
:102A000035FFFEBD222A000810B50446FFF723FF5C
:102A10008834E0B2FFF73DFFFFF70FFFFFF726FF17
:102A200010BD3F065B4F666D7D077F6F777C395E1B
:102A3000797100000000000000000001020304069C
:102A40000708090000000001020304006C2A0008C6
:102A5000000000201C0000007C260008882A0008D6
:102A60001C000020340500008C2600080000000037
:102A70000000000000000000010000000400000051
:082A80000000000000127A00C2
:04000005080000BD32
:00000001FF
